{
  "address": "0xf239a3D5B22e416aF1183824c264caa25097300e",
  "abi": [
    {
      "inputs": [
        {
          "internalType": "uint64",
          "name": "_vChainId",
          "type": "uint64"
        },
        {
          "internalType": "uint256",
          "name": "_evvmID",
          "type": "uint256"
        }
      ],
      "stateMutability": "nonpayable",
      "type": "constructor"
    },
    {
      "inputs": [
        {
          "internalType": "uint8",
          "name": "got",
          "type": "uint8"
        },
        {
          "internalType": "uint8",
          "name": "expected",
          "type": "uint8"
        }
      ],
      "name": "InvalidEncryptedInput",
      "type": "error"
    },
    {
      "inputs": [
        {
          "internalType": "address",
          "name": "owner",
          "type": "address"
        }
      ],
      "name": "OwnableInvalidOwner",
      "type": "error"
    },
    {
      "inputs": [
        {
          "internalType": "address",
          "name": "account",
          "type": "address"
        }
      ],
      "name": "OwnableUnauthorizedAccount",
      "type": "error"
    },
    {
      "inputs": [
        {
          "internalType": "int32",
          "name": "value",
          "type": "int32"
        }
      ],
      "name": "SecurityZoneOutOfBounds",
      "type": "error"
    },
    {
      "anonymous": false,
      "inputs": [
        {
          "indexed": true,
          "internalType": "address",
          "name": "realAddress",
          "type": "address"
        },
        {
          "indexed": true,
          "internalType": "bytes32",
          "name": "vaddr",
          "type": "bytes32"
        }
      ],
      "name": "AccountRegisteredFromAddress",
      "type": "event"
    },
    {
      "anonymous": false,
      "inputs": [
        {
          "indexed": false,
          "internalType": "uint256",
          "name": "oldEvvmID",
          "type": "uint256"
        },
        {
          "indexed": false,
          "internalType": "uint256",
          "name": "newEvvmID",
          "type": "uint256"
        }
      ],
      "name": "EvvmIDUpdated",
      "type": "event"
    },
    {
      "anonymous": false,
      "inputs": [
        {
          "indexed": true,
          "internalType": "bytes32",
          "name": "vaddr",
          "type": "bytes32"
        },
        {
          "indexed": false,
          "internalType": "euint64",
          "name": "amountAdded",
          "type": "uint256"
        }
      ],
      "name": "FaucetBalanceAdded",
      "type": "event"
    },
    {
      "anonymous": false,
      "inputs": [
        {
          "indexed": true,
          "internalType": "address",
          "name": "previousOwner",
          "type": "address"
        },
        {
          "indexed": true,
          "internalType": "address",
          "name": "newOwner",
          "type": "address"
        }
      ],
      "name": "OwnershipTransferred",
      "type": "event"
    },
    {
      "anonymous": false,
      "inputs": [
        {
          "indexed": false,
          "internalType": "bytes32",
          "name": "newCommitment",
          "type": "bytes32"
        }
      ],
      "name": "StateCommitmentUpdated",
      "type": "event"
    },
    {
      "anonymous": false,
      "inputs": [
        {
          "indexed": true,
          "internalType": "bytes32",
          "name": "vaddr",
          "type": "bytes32"
        },
        {
          "indexed": false,
          "internalType": "uint64",
          "name": "initialNonce",
          "type": "uint64"
        }
      ],
      "name": "VirtualAccountRegistered",
      "type": "event"
    },
    {
      "anonymous": false,
      "inputs": [
        {
          "indexed": true,
          "internalType": "uint64",
          "name": "vBlockNumber",
          "type": "uint64"
        },
        {
          "indexed": false,
          "internalType": "bytes32",
          "name": "stateCommitment",
          "type": "bytes32"
        }
      ],
      "name": "VirtualBlockCreated",
      "type": "event"
    },
    {
      "anonymous": false,
      "inputs": [
        {
          "indexed": true,
          "internalType": "bytes32",
          "name": "fromVaddr",
          "type": "bytes32"
        },
        {
          "indexed": true,
          "internalType": "bytes32",
          "name": "toVaddr",
          "type": "bytes32"
        },
        {
          "indexed": false,
          "internalType": "euint64",
          "name": "amountEnc",
          "type": "uint256"
        },
        {
          "indexed": false,
          "internalType": "uint64",
          "name": "nonce",
          "type": "uint64"
        },
        {
          "indexed": false,
          "internalType": "uint64",
          "name": "vBlockNumber",
          "type": "uint64"
        },
        {
          "indexed": false,
          "internalType": "uint256",
          "name": "txId",
          "type": "uint256"
        }
      ],
      "name": "VirtualTransferApplied",
      "type": "event"
    },
    {
      "inputs": [
        {
          "internalType": "bytes32",
          "name": "fromVaddr",
          "type": "bytes32"
        },
        {
          "internalType": "bytes32",
          "name": "toVaddr",
          "type": "bytes32"
        },
        {
          "components": [
            {
              "internalType": "uint256",
              "name": "ctHash",
              "type": "uint256"
            },
            {
              "internalType": "uint8",
              "name": "securityZone",
              "type": "uint8"
            },
            {
              "internalType": "uint8",
              "name": "utype",
              "type": "uint8"
            },
            {
              "internalType": "bytes",
              "name": "signature",
              "type": "bytes"
            }
          ],
          "internalType": "struct InEuint64",
          "name": "amount",
          "type": "tuple"
        },
        {
          "internalType": "uint64",
          "name": "expectedNonce",
          "type": "uint64"
        },
        {
          "internalType": "bool",
          "name": "incrementBlock",
          "type": "bool"
        }
      ],
      "name": "_applyTransferInternal",
      "outputs": [
        {
          "internalType": "uint256",
          "name": "txId",
          "type": "uint256"
        }
      ],
      "stateMutability": "nonpayable",
      "type": "function"
    },
    {
      "inputs": [
        {
          "internalType": "bytes32",
          "name": "vaddr",
          "type": "bytes32"
        }
      ],
      "name": "accountExists",
      "outputs": [
        {
          "internalType": "bool",
          "name": "",
          "type": "bool"
        }
      ],
      "stateMutability": "view",
      "type": "function"
    },
    {
      "inputs": [
        {
          "internalType": "address",
          "name": "",
          "type": "address"
        }
      ],
      "name": "addressToVaddr",
      "outputs": [
        {
          "internalType": "bytes32",
          "name": "",
          "type": "bytes32"
        }
      ],
      "stateMutability": "view",
      "type": "function"
    },
    {
      "inputs": [
        {
          "internalType": "bytes32",
          "name": "fromVaddr",
          "type": "bytes32"
        },
        {
          "internalType": "bytes32",
          "name": "toVaddr",
          "type": "bytes32"
        },
        {
          "components": [
            {
              "internalType": "uint256",
              "name": "ctHash",
              "type": "uint256"
            },
            {
              "internalType": "uint8",
              "name": "securityZone",
              "type": "uint8"
            },
            {
              "internalType": "uint8",
              "name": "utype",
              "type": "uint8"
            },
            {
              "internalType": "bytes",
              "name": "signature",
              "type": "bytes"
            }
          ],
          "internalType": "struct InEuint64",
          "name": "amount",
          "type": "tuple"
        },
        {
          "internalType": "uint64",
          "name": "expectedNonce",
          "type": "uint64"
        }
      ],
      "name": "applyTransfer",
      "outputs": [
        {
          "internalType": "uint256",
          "name": "txId",
          "type": "uint256"
        }
      ],
      "stateMutability": "nonpayable",
      "type": "function"
    },
    {
      "inputs": [
        {
          "components": [
            {
              "internalType": "bytes32",
              "name": "fromVaddr",
              "type": "bytes32"
            },
            {
              "internalType": "bytes32",
              "name": "toVaddr",
              "type": "bytes32"
            },
            {
              "components": [
                {
                  "internalType": "uint256",
                  "name": "ctHash",
                  "type": "uint256"
                },
                {
                  "internalType": "uint8",
                  "name": "securityZone",
                  "type": "uint8"
                },
                {
                  "internalType": "uint8",
                  "name": "utype",
                  "type": "uint8"
                },
                {
                  "internalType": "bytes",
                  "name": "signature",
                  "type": "bytes"
                }
              ],
              "internalType": "struct InEuint64",
              "name": "amount",
              "type": "tuple"
            },
            {
              "internalType": "uint64",
              "name": "expectedNonce",
              "type": "uint64"
            }
          ],
          "internalType": "struct EVVMCore.TransferParams[]",
          "name": "transfers",
          "type": "tuple[]"
        }
      ],
      "name": "applyTransferBatch",
      "outputs": [
        {
          "internalType": "uint256",
          "name": "successfulTxs",
          "type": "uint256"
        },
        {
          "internalType": "uint256",
          "name": "failedTxs",
          "type": "uint256"
        },
        {
          "internalType": "uint256[]",
          "name": "txIds",
          "type": "uint256[]"
        }
      ],
      "stateMutability": "nonpayable",
      "type": "function"
    },
    {
      "inputs": [
        {
          "internalType": "bytes32",
          "name": "newCommitment",
          "type": "bytes32"
        }
      ],
      "name": "createVirtualBlock",
      "outputs": [
        {
          "internalType": "uint64",
          "name": "blockNumber",
          "type": "uint64"
        }
      ],
      "stateMutability": "nonpayable",
      "type": "function"
    },
    {
      "inputs": [],
      "name": "evvmID",
      "outputs": [
        {
          "internalType": "uint256",
          "name": "",
          "type": "uint256"
        }
      ],
      "stateMutability": "view",
      "type": "function"
    },
    {
      "inputs": [
        {
          "internalType": "bytes32",
          "name": "vaddr",
          "type": "bytes32"
        },
        {
          "components": [
            {
              "internalType": "uint256",
              "name": "ctHash",
              "type": "uint256"
            },
            {
              "internalType": "uint8",
              "name": "securityZone",
              "type": "uint8"
            },
            {
              "internalType": "uint8",
              "name": "utype",
              "type": "uint8"
            },
            {
              "internalType": "bytes",
              "name": "signature",
              "type": "bytes"
            }
          ],
          "internalType": "struct InEuint64",
          "name": "amount",
          "type": "tuple"
        }
      ],
      "name": "faucetAddBalance",
      "outputs": [],
      "stateMutability": "nonpayable",
      "type": "function"
    },
    {
      "inputs": [
        {
          "internalType": "address",
          "name": "realAddress",
          "type": "address"
        },
        {
          "internalType": "bytes32",
          "name": "salt",
          "type": "bytes32"
        }
      ],
      "name": "generateVaddrFromAddress",
      "outputs": [
        {
          "internalType": "bytes32",
          "name": "",
          "type": "bytes32"
        }
      ],
      "stateMutability": "view",
      "type": "function"
    },
    {
      "inputs": [
        {
          "internalType": "bytes32",
          "name": "vaddr",
          "type": "bytes32"
        }
      ],
      "name": "getAccount",
      "outputs": [
        {
          "components": [
            {
              "internalType": "euint64",
              "name": "balance",
              "type": "uint256"
            },
            {
              "internalType": "uint64",
              "name": "nonce",
              "type": "uint64"
            },
            {
              "internalType": "bool",
              "name": "exists",
              "type": "bool"
            }
          ],
          "internalType": "struct EVVMCore.VirtualAccount",
          "name": "",
          "type": "tuple"
        }
      ],
      "stateMutability": "view",
      "type": "function"
    },
    {
      "inputs": [
        {
          "internalType": "uint64",
          "name": "blockNumber",
          "type": "uint64"
        }
      ],
      "name": "getBlockInfo",
      "outputs": [
        {
          "components": [
            {
              "internalType": "uint64",
              "name": "blockNumber",
              "type": "uint64"
            },
            {
              "internalType": "bytes32",
              "name": "stateCommitment",
              "type": "bytes32"
            },
            {
              "internalType": "uint256",
              "name": "timestamp",
              "type": "uint256"
            },
            {
              "internalType": "uint256",
              "name": "transactionCount",
              "type": "uint256"
            },
            {
              "internalType": "bool",
              "name": "exists",
              "type": "bool"
            }
          ],
          "internalType": "struct EVVMCore.VirtualBlock",
          "name": "blockInfo",
          "type": "tuple"
        }
      ],
      "stateMutability": "view",
      "type": "function"
    },
    {
      "inputs": [
        {
          "internalType": "bytes32",
          "name": "vaddr",
          "type": "bytes32"
        }
      ],
      "name": "getEncryptedBalance",
      "outputs": [
        {
          "internalType": "euint64",
          "name": "",
          "type": "uint256"
        }
      ],
      "stateMutability": "view",
      "type": "function"
    },
    {
      "inputs": [
        {
          "internalType": "bytes32",
          "name": "vaddr",
          "type": "bytes32"
        }
      ],
      "name": "getNonce",
      "outputs": [
        {
          "internalType": "uint64",
          "name": "",
          "type": "uint64"
        }
      ],
      "stateMutability": "view",
      "type": "function"
    },
    {
      "inputs": [
        {
          "internalType": "address",
          "name": "realAddress",
          "type": "address"
        }
      ],
      "name": "getVaddrFromAddress",
      "outputs": [
        {
          "internalType": "bytes32",
          "name": "",
          "type": "bytes32"
        }
      ],
      "stateMutability": "view",
      "type": "function"
    },
    {
      "inputs": [
        {
          "internalType": "uint256",
          "name": "txId",
          "type": "uint256"
        }
      ],
      "name": "getVirtualTransaction",
      "outputs": [
        {
          "components": [
            {
              "internalType": "bytes32",
              "name": "fromVaddr",
              "type": "bytes32"
            },
            {
              "internalType": "bytes32",
              "name": "toVaddr",
              "type": "bytes32"
            },
            {
              "internalType": "euint64",
              "name": "amountEnc",
              "type": "uint256"
            },
            {
              "internalType": "uint64",
              "name": "nonce",
              "type": "uint64"
            },
            {
              "internalType": "uint64",
              "name": "vBlockNumber",
              "type": "uint64"
            },
            {
              "internalType": "uint256",
              "name": "timestamp",
              "type": "uint256"
            },
            {
              "internalType": "bool",
              "name": "exists",
              "type": "bool"
            }
          ],
          "internalType": "struct EVVMCore.VirtualTransaction",
          "name": "",
          "type": "tuple"
        }
      ],
      "stateMutability": "view",
      "type": "function"
    },
    {
      "inputs": [],
      "name": "nextTxId",
      "outputs": [
        {
          "internalType": "uint256",
          "name": "",
          "type": "uint256"
        }
      ],
      "stateMutability": "view",
      "type": "function"
    },
    {
      "inputs": [],
      "name": "owner",
      "outputs": [
        {
          "internalType": "address",
          "name": "",
          "type": "address"
        }
      ],
      "stateMutability": "view",
      "type": "function"
    },
    {
      "inputs": [
        {
          "internalType": "bytes32",
          "name": "vaddr",
          "type": "bytes32"
        },
        {
          "components": [
            {
              "internalType": "uint256",
              "name": "ctHash",
              "type": "uint256"
            },
            {
              "internalType": "uint8",
              "name": "securityZone",
              "type": "uint8"
            },
            {
              "internalType": "uint8",
              "name": "utype",
              "type": "uint8"
            },
            {
              "internalType": "bytes",
              "name": "signature",
              "type": "bytes"
            }
          ],
          "internalType": "struct InEuint64",
          "name": "initialBalance",
          "type": "tuple"
        }
      ],
      "name": "registerAccount",
      "outputs": [],
      "stateMutability": "nonpayable",
      "type": "function"
    },
    {
      "inputs": [
        {
          "internalType": "address",
          "name": "realAddress",
          "type": "address"
        },
        {
          "components": [
            {
              "internalType": "uint256",
              "name": "ctHash",
              "type": "uint256"
            },
            {
              "internalType": "uint8",
              "name": "securityZone",
              "type": "uint8"
            },
            {
              "internalType": "uint8",
              "name": "utype",
              "type": "uint8"
            },
            {
              "internalType": "bytes",
              "name": "signature",
              "type": "bytes"
            }
          ],
          "internalType": "struct InEuint64",
          "name": "initialBalance",
          "type": "tuple"
        }
      ],
      "name": "registerAccountFromAddress",
      "outputs": [],
      "stateMutability": "nonpayable",
      "type": "function"
    },
    {
      "inputs": [],
      "name": "renounceOwnership",
      "outputs": [],
      "stateMutability": "nonpayable",
      "type": "function"
    },
    {
      "inputs": [
        {
          "internalType": "address",
          "name": "from",
          "type": "address"
        },
        {
          "internalType": "address",
          "name": "to",
          "type": "address"
        },
        {
          "components": [
            {
              "internalType": "uint256",
              "name": "ctHash",
              "type": "uint256"
            },
            {
              "internalType": "uint8",
              "name": "securityZone",
              "type": "uint8"
            },
            {
              "internalType": "uint8",
              "name": "utype",
              "type": "uint8"
            },
            {
              "internalType": "bytes",
              "name": "signature",
              "type": "bytes"
            }
          ],
          "internalType": "struct InEuint64",
          "name": "amount",
          "type": "tuple"
        },
        {
          "internalType": "uint64",
          "name": "expectedNonce",
          "type": "uint64"
        }
      ],
      "name": "requestPay",
      "outputs": [
        {
          "internalType": "uint256",
          "name": "txId",
          "type": "uint256"
        }
      ],
      "stateMutability": "nonpayable",
      "type": "function"
    },
    {
      "inputs": [
        {
          "internalType": "uint256",
          "name": "newEvvmID",
          "type": "uint256"
        }
      ],
      "name": "setEvvmID",
      "outputs": [],
      "stateMutability": "nonpayable",
      "type": "function"
    },
    {
      "inputs": [],
      "name": "stateCommitment",
      "outputs": [
        {
          "internalType": "bytes32",
          "name": "",
          "type": "bytes32"
        }
      ],
      "stateMutability": "view",
      "type": "function"
    },
    {
      "inputs": [
        {
          "internalType": "address",
          "name": "newOwner",
          "type": "address"
        }
      ],
      "name": "transferOwnership",
      "outputs": [],
      "stateMutability": "nonpayable",
      "type": "function"
    },
    {
      "inputs": [
        {
          "internalType": "bytes32",
          "name": "newCommitment",
          "type": "bytes32"
        }
      ],
      "name": "updateStateCommitment",
      "outputs": [],
      "stateMutability": "nonpayable",
      "type": "function"
    },
    {
      "inputs": [
        {
          "internalType": "bytes32",
          "name": "newCommitment",
          "type": "bytes32"
        }
      ],
      "name": "updateStateCommitmentAfterBatch",
      "outputs": [],
      "stateMutability": "nonpayable",
      "type": "function"
    },
    {
      "inputs": [],
      "name": "vBlockNumber",
      "outputs": [
        {
          "internalType": "uint64",
          "name": "",
          "type": "uint64"
        }
      ],
      "stateMutability": "view",
      "type": "function"
    },
    {
      "inputs": [],
      "name": "vChainId",
      "outputs": [
        {
          "internalType": "uint64",
          "name": "",
          "type": "uint64"
        }
      ],
      "stateMutability": "view",
      "type": "function"
    },
    {
      "inputs": [
        {
          "internalType": "bytes32",
          "name": "",
          "type": "bytes32"
        }
      ],
      "name": "vaddrToAddress",
      "outputs": [
        {
          "internalType": "address",
          "name": "",
          "type": "address"
        }
      ],
      "stateMutability": "view",
      "type": "function"
    },
    {
      "inputs": [
        {
          "internalType": "uint64",
          "name": "",
          "type": "uint64"
        }
      ],
      "name": "virtualBlocks",
      "outputs": [
        {
          "internalType": "uint64",
          "name": "blockNumber",
          "type": "uint64"
        },
        {
          "internalType": "bytes32",
          "name": "stateCommitment",
          "type": "bytes32"
        },
        {
          "internalType": "uint256",
          "name": "timestamp",
          "type": "uint256"
        },
        {
          "internalType": "uint256",
          "name": "transactionCount",
          "type": "uint256"
        },
        {
          "internalType": "bool",
          "name": "exists",
          "type": "bool"
        }
      ],
      "stateMutability": "view",
      "type": "function"
    },
    {
      "inputs": [
        {
          "internalType": "uint256",
          "name": "",
          "type": "uint256"
        }
      ],
      "name": "virtualTransactions",
      "outputs": [
        {
          "internalType": "bytes32",
          "name": "fromVaddr",
          "type": "bytes32"
        },
        {
          "internalType": "bytes32",
          "name": "toVaddr",
          "type": "bytes32"
        },
        {
          "internalType": "euint64",
          "name": "amountEnc",
          "type": "uint256"
        },
        {
          "internalType": "uint64",
          "name": "nonce",
          "type": "uint64"
        },
        {
          "internalType": "uint64",
          "name": "vBlockNumber",
          "type": "uint64"
        },
        {
          "internalType": "uint256",
          "name": "timestamp",
          "type": "uint256"
        },
        {
          "internalType": "bool",
          "name": "exists",
          "type": "bool"
        }
      ],
      "stateMutability": "view",
      "type": "function"
    }
  ],
  "transactionHash": "0xf9ef5d4f924f8c031ee57cec94b46bf347d33967f296adc5a387ee9ee262301e",
  "args": [
    "1",
    "100"
  ],
  "numDeployments": 9,
  "solcInputHash": "0f102eb70e4a4335b1bcc799c084e21d",
  "bytecode": "0x60a060405234801561000f575f80fd5b50604051612f86380380612f8683398101604081905261002e916100d9565b338061005357604051631e4fbdf760e01b81525f600482015260240160405180910390fd5b61005c8161008a565b506001600160401b0390911660805260019081555f8054600160a01b600160e01b0319169055600555610110565b5f80546001600160a01b038381166001600160a01b0319831681178455604051919092169283917f8be0079c531659141344cd1fd0a4f28419497f9722a3daafe3b4186f6b6457e09190a35050565b5f80604083850312156100ea575f80fd5b82516001600160401b0381168114610100575f80fd5b6020939093015192949293505050565b608051612e4961013d5f395f8181610448015281816111c60152818161140901526114840152612e495ff3fe608060405234801561000f575f80fd5b50600436106101dc575f3560e01c8063715018a611610109578063a8e4d7d41161009e578063d800741e1161006e578063d800741e14610642578063e466fe451461064b578063f2fde38b1461066d578063f83491b414610680575f80fd5b8063a8e4d7d41461055f578063b4971d1e14610572578063c7f06e35146105ef578063d1de501114610602575f80fd5b80638aff87b2116100d95780638aff87b2146105205780638da5cb5b1461052957806390465f62146105395780639b7e541c1461054c575f80fd5b8063715018a6146104d957806375ef5ec9146104e15780637b036037146104f45780637dee2dde14610507575f80fd5b80633aaccbd41161017f5780635042f5ec1161014f5780635042f5ec1461046a57806365537e8d1461047d5780636ab8bed8146104865780636c6c971414610499575f80fd5b80633aaccbd4146103595780633b816bec146103f45780634136a33c146104305780635035268a14610443575f80fd5b80631a4380f0116101ba5780631a4380f01461022e57806325ad2705146102565780632beed57b146102cf5780632df41c2d146102fa575f80fd5b806301ed3f51146101e05780630b5b2807146101f55780630eecc3c31461021b575b5f80fd5b6101f36101ee3660046126a1565b61069f565b005b6102086102033660046126ff565b6106ec565b6040519081526020015b60405180910390f35b6101f36102293660046126a1565b6107ef565b61020861023c366004612769565b6001600160a01b03165f9081526007602052604090205490565b6102696102643660046126a1565b61092d565b60405161021291905f60e08201905082518252602083015160208301526040830151604083015260608301516001600160401b038082166060850152806080860151166080850152505060a083015160a083015260c0830151151560c083015292915050565b6102e26102dd3660046126a1565b610a3a565b6040516001600160401b039091168152602001610212565b61030d610308366004612782565b610b67565b60405161021291905f60a0820190506001600160401b03835116825260208301516020830152604083015160408301526060830151606083015260808301511515608083015292915050565b6103b46103673660046126a1565b600460208190525f91825260409091208054600182015460028301546003840154948401546005909401549294919390926001600160401b0380841693600160401b900416919060ff1687565b604080519788526020880196909652948601939093526001600160401b03918216606086015216608084015260a0830152151560c082015260e001610212565b6104206104023660046126a1565b5f90815260036020526040902060010154600160401b900460ff1690565b6040519015158152602001610212565b6102e261043e3660046126a1565b610c57565b6102e27f000000000000000000000000000000000000000000000000000000000000000081565b61020861047836600461279b565b610cac565b61020860015481565b6101f361049436600461280f565b6111c2565b6104c16104a73660046126a1565b60086020525f90815260409020546001600160a01b031681565b6040516001600160a01b039091168152602001610212565b6101f36113d5565b6102086104ef366004612859565b6113e8565b61020861050236600461288f565b611400565b5f546102e290600160a01b90046001600160401b031681565b61020860055481565b5f546001600160a01b03166104c1565b6102086105473660046126a1565b6114c9565b6101f361055a3660046128b7565b611512565b6101f361056d3660046126a1565b6115e6565b6105bb610580366004612782565b60066020525f9081526040902080546001820154600283015460038401546004909401546001600160401b0390931693919290919060ff1685565b604080516001600160401b03909616865260208601949094529284019190915260608301521515608082015260a001610212565b6101f36105fd3660046128b7565b611688565b6106156106103660046126a1565b611777565b60408051825181526020808401516001600160401b03169082015291810151151590820152606001610212565b61020860025481565b61065e6106593660046128e4565b611816565b6040516102129392919061298c565b6101f361067b366004612769565b611bf1565b61020861068e366004612769565b60076020525f908152604090205481565b6106a7611c2e565b600180549082905560408051828152602081018490527fb37d86ac6b9b7a147a7dfca117a426eca2777948d040a341b9e7c1099f4c3b59910160405180910390a15050565b6001600160a01b038085165f908152600760205260408082205492861682528120549091908161076d5760405162461bcd60e51b815260206004820152602160248201527f4556564d3a2066726f6d2061646472657373206e6f74207265676973746572656044820152601960fa1b60648201526084015b60405180910390fd5b806107ba5760405162461bcd60e51b815260206004820152601f60248201527f4556564d3a20746f2061646472657373206e6f742072656769737465726564006044820152606401610764565b5f6107cc6107c787612a26565b611c5a565b90506107d781611cf6565b6107e383838388611d5a565b98975050505050505050565b8061080c5760405162461bcd60e51b815260040161076490612ae7565b60028190555f8054600160a01b90046001600160401b031681526006602052604090206004015460ff1615610864575f8054600160a01b90046001600160401b031681526006602052604090206001018190556108f6565b6040805160a0810182525f8054600160a01b90046001600160401b03908116808452602080850187815242868801908152606087018681526001608089018181529588526006909452979095209551865467ffffffffffffffff19169416939093178555915191840191909155905160028301559151600382015590516004909101805460ff19169115159190911790555b6040518181527f85026918a2898147e1e26fa12a4327e81cf8947549e27ba43270dec91a9398f7906020015b60405180910390a150565b6040805160e0810182525f80825260208201819052918101829052606081018290526080810182905260a0810182905260c08101919091525f8281526004602052604090206005015460ff166109c55760405162461bcd60e51b815260206004820181905260248201527f4556564d3a207472616e73616374696f6e20646f6573206e6f742065786973746044820152606401610764565b505f90815260046020818152604092839020835160e0810185528154815260018201549281019290925260028101549382019390935260038301546001600160401b038082166060840152600160401b9091041660808201529082015460a082015260059091015460ff16151560c082015290565b5f81610a585760405162461bcd60e51b815260040161076490612ae7565b60015f60148282829054906101000a90046001600160401b0316610a7c9190612b32565b82546101009290920a6001600160401b038181021990931691831602179091555f805460028681556040805160a081018252600160a01b909304851680845260208085018a81524286850190815260608701888152600160808901818152868b5260068652998790209851895467ffffffffffffffff19169b169a909a1788559151988701989098559651938501939093559451600384015592516004909201805460ff19169215159290921790915590518581529193508392507fa7dc1a465e051a20188a9da320ec4dd74d2c816b5881ae8afc3f15c0c7990246910160405180910390a2919050565b6040805160a0810182525f808252602080830182905282840182905260608301829052608083018290526001600160401b038516825260069052919091206004015460ff16610bf85760405162461bcd60e51b815260206004820152601a60248201527f4556564d3a20626c6f636b20646f6573206e6f742065786973740000000000006044820152606401610764565b506001600160401b039081165f90815260066020908152604091829020825160a08101845281549094168452600181015491840191909152600281015491830191909152600381015460608301526004015460ff161515608082015290565b5f81815260036020526040812060010154600160401b900460ff16610c8e5760405162461bcd60e51b815260040161076490612b59565b505f908152600360205260409020600101546001600160401b031690565b5f85815260036020526040812060010154600160401b900460ff16610d135760405162461bcd60e51b815260206004820152601a60248201527f4556564d3a2066726f6d206163636f756e74206d697373696e670000000000006044820152606401610764565b5f85815260036020526040902060010154600160401b900460ff16610d755760405162461bcd60e51b81526020600482015260186024820152774556564d3a20746f206163636f756e74206d697373696e6760401b6044820152606401610764565b5f86815260036020526040808220878352912060018201546001600160401b03868116911614610dd95760405162461bcd60e51b815260206004820152600f60248201526e4556564d3a20626164206e6f6e636560881b6044820152606401610764565b5f610de66107c788612a26565b9050610df181611cf6565b5f610dff845f015483612249565b90505f610e0f845f01548461228a565b8286558085559050610e20826122cb565b610e29816122cb565b610e3282611cf6565b610e3b81611cf6565b600180860180546001600160401b031691905f610e588385612b32565b92506101000a8154816001600160401b0302191690836001600160401b031602179055508715610f7f5760015f60148282829054906101000a90046001600160401b0316610ea69190612b32565b82546101009290920a6001600160401b038181021990931691831602179091555f8054600160a01b900490911681526006602052604090206004015460ff169050610f7f576040805160a0810182525f8054600160a01b90046001600160401b039081168084526002805460208087019182524287890190815260608801878152600160808a018181529689526006909352989096209651875467ffffffffffffffff1916951694909417865551928501929092559151908301559151600382015590516004909101805460ff19169115159190911790555b6005805497506001905f610f93838b612b90565b909155505f905088610fa5575f610fb8565b5f54600160a01b90046001600160401b03165b90506040518060e001604052808e81526020018d8152602001868152602001836001600160401b03168152602001826001600160401b031681526020014281526020016001151581525060045f8a81526020019081526020015f205f820151815f015560208201518160010155604082015181600201556060820151816003015f6101000a8154816001600160401b0302191690836001600160401b0316021790555060808201518160030160086101000a8154816001600160401b0302191690836001600160401b0316021790555060a0820151816004015560c0820151816005015f6101000a81548160ff0219169083151502179055509050508880156110e257505f8054600160a01b90046001600160401b031681526006602052604090206004015460ff165b1561111f575f8054600160a01b90046001600160401b03168152600660205260408120600301805460019290611119908490612b90565b90915550505b611128856122cb565b61113185611cf6565b5f8961113d575f611150565b5f54600160a01b90046001600160401b03165b90508c8e7fdb6849fa12f4224e10a54c9dfe21d004fe02f9838dbfcc8db8058ae9dd57f2068886858e6040516111a994939291909384526001600160401b03928316602085015291166040830152606082015260800190565b60405180910390a3505050505050505095945050505050565b5f827f00000000000000000000000000000000000000000000000000000000000000006001546040516020016111fa93929190612ba3565b60408051808303601f1901815291815281516020928301205f8181526003909352912060010154909150600160401b900460ff161561127b5760405162461bcd60e51b815260206004820152601c60248201527f4556564d3a206163636f756e7420616c726561647920657869737473000000006044820152606401610764565b6001600160a01b0383165f90815260076020526040902054156112e05760405162461bcd60e51b815260206004820181905260248201527f4556564d3a206164647265737320616c726561647920726567697374657265646044820152606401610764565b6001600160a01b0383165f8181526007602090815260408083208590558483526008909152812080546001600160a01b0319169092179091556113256107c784612a26565b5f83815260036020526040902081815560018101805468ffffffffffffffffff1916600160401b17905590915061135b826122cb565b61136482611cf6565b6040515f815283907f9ccaf5e7debf7907a65fec1893f019b872019650c10419300c5d8f943641ad049060200160405180910390a260405183906001600160a01b038716907f8b139c06f547e096ce4dae9a1a0d75ab7473db159262df954fe7cb55e11215a2905f90a35050505050565b6113dd611c2e565b6113e65f612309565b565b5f6113f7858585856001610cac565b95945050505050565b5f8161145a57827f000000000000000000000000000000000000000000000000000000000000000060015460405160200161143d93929190612ba3565b6040516020818303038152906040528051906020012090506114c3565b6001546040516bffffffffffffffffffffffff19606086901b1660208201526001600160c01b03197f000000000000000000000000000000000000000000000000000000000000000060c01b166034820152603c810191909152605c8101839052607c0161143d565b92915050565b5f81815260036020526040812060010154600160401b900460ff166115005760405162461bcd60e51b815260040161076490612b59565b505f9081526003602052604090205490565b61151a611c2e565b5f82815260036020526040902060010154600160401b900460ff166115515760405162461bcd60e51b815260040161076490612b59565b5f61155e6107c783612a26565b9050611569816122cb565b61157281612358565b5f838152600360205260408120805490919061158e908461228a565b808355905061159c816122cb565b6115a581611cf6565b847fa89c78b82440382245d0e2e4a3a3a8cbf0d58346f672911255979ae4b4aaa9c1846040516115d791815260200190565b60405180910390a25050505050565b806116035760405162461bcd60e51b815260040161076490612ae7565b60028190555f8054600160a01b90046001600160401b031681526006602052604090206004015460ff16156108f6575f80546001600160401b03600160a01b9091041681526006602052604090206001018190557f85026918a2898147e1e26fa12a4327e81cf8947549e27ba43270dec91a9398f78160405161092291815260200190565b5f82815260036020526040902060010154600160401b900460ff16156116f05760405162461bcd60e51b815260206004820152601c60248201527f4556564d3a206163636f756e7420616c726561647920657869737473000000006044820152606401610764565b5f6116fd6107c783612a26565b5f84815260036020526040902081815560018101805468ffffffffffffffffff1916600160401b179055909150611733826122cb565b61173c82611cf6565b6040515f815284907f9ccaf5e7debf7907a65fec1893f019b872019650c10419300c5d8f943641ad049060200160405180910390a250505050565b604080516060810182525f80825260208201819052918101919091525f82815260036020526040902060010154600160401b900460ff166117ca5760405162461bcd60e51b815260040161076490612b59565b505f908152600360209081526040918290208251606081018452815481526001909101546001600160401b03811692820192909252600160401b90910460ff1615159181019190915290565b5f806060838061185c5760405162461bcd60e51b815260206004820152601160248201527008aacac9a7440cadae0e8f240c4c2e8c6d607b1b6044820152606401610764565b806001600160401b03811115611874576118746129aa565b60405190808252806020026020018201604052801561189d578160200160208202803683370190505b50915060015f60148282829054906101000a90046001600160401b03166118c49190612b32565b82546101009290920a6001600160401b038181021990931691831602179091555f80546040805160a081018252600160a01b90920484168083526002805460208086019182524286860190815260608701888152600160808901818152878b5260069094529689209751885467ffffffffffffffff19169a16999099178755915194860194909455519084015593516003830155516004909101805460ff19169115159190911790559091505b82811015611b5b5730635042f5ec89898481811061199157611991612bda565b90506020028101906119a39190612bee565b358a8a858181106119b6576119b6612bda565b90506020028101906119c89190612bee565b602001358b8b868181106119de576119de612bda565b90506020028101906119f09190612bee565b6119fe906040810190612bee565b8c8c87818110611a1057611a10612bda565b9050602002810190611a229190612bee565b611a33906080810190606001612782565b5f6040518663ffffffff1660e01b8152600401611a54959493929190612c34565b6020604051808303815f875af1925050508015611a8e575060408051601f3d908101601f19168201909252611a8b91810190612cf5565b60015b611ac2575f848281518110611aa557611aa5612bda565b602090810291909101015284611aba81612d0c565b955050611b53565b80858381518110611ad557611ad5612bda565b602090810291909101015286611aea81612d0c565b5f838152600460209081526040808320600390810180546fffffffffffffffff00000000000000001916600160401b6001600160401b038c1690810291909117909155845260069092528220018054929a506001935091611b4c908490612b90565b9091555050505b600101611971565b50845f03611be85760015f60148282829054906101000a90046001600160401b0316611b879190612d24565b82546101009290920a6001600160401b0381810219909316918316021790915582165f908152600660205260408120805467ffffffffffffffff1916815560018101829055600281018290556003810191909155600401805460ff19169055505b50509250925092565b611bf9611c2e565b6001600160a01b038116611c2257604051631e4fbdf760e01b81525f6004820152602401610764565b611c2b81612309565b50565b5f546001600160a01b031633146113e65760405163118cdaa760e01b8152336004820152602401610764565b60408101515f9060059060ff168114611c995760408084015190516367cf307160e01b815260ff91821660048201529082166024820152604401610764565b60408051608080820183525f808352602080840182905283850191909152606092830183905283519182018452865182528087015160ff16908201526005928101929092528085015190820152611cef90612396565b9392505050565b604051631a778f2d60e11b81526004810182905273ea30c4b8b44078bbf8a6ef5b9f1ec1626c7848d9906334ef1e5a906024015b5f604051808303815f87803b158015611d41575f80fd5b505af1158015611d53573d5f803e3d5ffd5b5050505050565b5f84815260036020526040812060010154600160401b900460ff16611dc15760405162461bcd60e51b815260206004820152601a60248201527f4556564d3a2066726f6d206163636f756e74206d697373696e670000000000006044820152606401610764565b5f84815260036020526040902060010154600160401b900460ff16611e235760405162461bcd60e51b81526020600482015260186024820152774556564d3a20746f206163636f756e74206d697373696e6760401b6044820152606401610764565b5f85815260036020526040808220868352912060018201546001600160401b03858116911614611e875760405162461bcd60e51b815260206004820152600f60248201526e4556564d3a20626164206e6f6e636560881b6044820152606401610764565b5f611e95835f015487612249565b90505f611ea5835f01548861228a565b8285558084559050611eb6826122cb565b611ebf816122cb565b611ec882611cf6565b611ed181611cf6565b600180850180546001600160401b031691905f611eee8385612b32565b92506101000a8154816001600160401b0302191690836001600160401b0316021790555060015f60148282829054906101000a90046001600160401b0316611f369190612b32565b82546101009290920a6001600160401b038181021990931691831602179091555f8054600160a01b900490911681526006602052604090206004015460ff169050612043576040805160a0810182525f8054600160a01b908190046001600160401b0390811680855260208086018581524287890190815260016060890181815260808a01828152958952600685528a892099518a5467ffffffffffffffff1916908816178a5592519089015551600288015551600387015590516004909501805460ff191695151595909517909455825494519283529304909216917fa7dc1a465e051a20188a9da320ec4dd74d2c816b5881ae8afc3f15c0c7990246910160405180910390a26120a0565b5f8054600160a01b90046001600160401b03168152600660205260408120600301805460019290612075908490612b90565b90915550505f8054600160a01b90046001600160401b03168152600660205260409020426002909101555b6005805496506001905f6120b4838a612b90565b925050819055506040518060e001604052808b81526020018a8152602001898152602001826001600160401b031681526020015f60149054906101000a90046001600160401b03166001600160401b031681526020014281526020016001151581525060045f8881526020019081526020015f205f820151815f015560208201518160010155604082015181600201556060820151816003015f6101000a8154816001600160401b0302191690836001600160401b0316021790555060808201518160030160086101000a8154816001600160401b0302191690836001600160401b0316021790555060a0820151816004015560c0820151816005015f6101000a81548160ff021916908315150217905550905050888a7fdb6849fa12f4224e10a54c9dfe21d004fe02f9838dbfcc8db8058ae9dd57f2068a845f60149054906101000a90046001600160401b03168b60405161223494939291909384526001600160401b03928316602085015291166040830152606082015260800190565b60405180910390a35050505050949350505050565b5f61225383612411565b612263576122605f61241a565b92505b61226c82612411565b61227c576122795f61241a565b91505b611cef600584846007612425565b5f61229483612411565b6122a4576122a15f61241a565b92505b6122ad82612411565b6122bd576122ba5f61241a565b91505b611cef600584846008612425565b604051631974142760e21b81526004810182905230602482015273ea30c4b8b44078bbf8a6ef5b9f1ec1626c7848d9906365d0509c90604401611d2a565b5f80546001600160a01b038381166001600160a01b0319831681178455604051919092169283917f8be0079c531659141344cd1fd0a4f28419497f9722a3daafe3b4186f6b6457e09190a35050565b604051631974142760e21b81526004810182905233602482015273ea30c4b8b44078bbf8a6ef5b9f1ec1626c7848d9906365d0509c90604401611d2a565b6040516313fce3b160e11b81525f9073ea30c4b8b44078bbf8a6ef5b9f1ec1626c7848d9906327f9c762906123d19085903390600401612d44565b6020604051808303815f875af11580156123ed573d5f803e3d5ffd5b505050506040513d601f19601f820116820180604052508101906114c39190612cf5565b5f8115156114c3565b5f6114c3825f6124bd565b5f73ea30c4b8b44078bbf8a6ef5b9f1ec1626c7848d9631888debd868461244c88886124d3565b604080515f815260208101918290526001600160e01b031960e087901b1690915261247d9392919060248101612db9565b6020604051808303815f875af1158015612499573d5f803e3d5ffd5b505050506040513d601f19601f820116820180604052508101906113f79190612cf5565b5f806124cb8460058561253c565b949350505050565b60408051600280825260608083018452925f92919060208301908036833701905050905083815f8151811061250a5761250a612bda565b602002602001018181525050828160018151811061252a5761252a612bda565b60209081029190910101529392505050565b604080515f8082526020820190925273ea30c4b8b44078bbf8a6ef5b9f1ec1626c7848d990631888debd908590601a90612582898960ff1661257d8a6125e1565b612616565b6040518563ffffffff1660e01b81526004016125a19493929190612db9565b6020604051808303815f875af11580156125bd573d5f803e3d5ffd5b505050506040513d601f19601f820116820180604052508101906124cb9190612cf5565b5f808260030b121561260c576040516311ead17f60e31b8152600383900b6004820152602401610764565b5063ffffffff1690565b604080516003808252608082019092526060915f919060208201848036833701905050905084815f8151811061264e5761264e612bda565b602002602001018181525050838160018151811061266e5761266e612bda565b602002602001018181525050828160028151811061268e5761268e612bda565b6020908102919091010152949350505050565b5f602082840312156126b1575f80fd5b5035919050565b80356001600160a01b03811681146126ce575f80fd5b919050565b5f608082840312156126e3575f80fd5b50919050565b80356001600160401b03811681146126ce575f80fd5b5f805f8060808587031215612712575f80fd5b61271b856126b8565b9350612729602086016126b8565b925060408501356001600160401b03811115612743575f80fd5b61274f878288016126d3565b92505061275e606086016126e9565b905092959194509250565b5f60208284031215612779575f80fd5b611cef826126b8565b5f60208284031215612792575f80fd5b611cef826126e9565b5f805f805f60a086880312156127af575f80fd5b853594506020860135935060408601356001600160401b038111156127d2575f80fd5b6127de888289016126d3565b9350506127ed606087016126e9565b915060808601358015158114612801575f80fd5b809150509295509295909350565b5f8060408385031215612820575f80fd5b612829836126b8565b915060208301356001600160401b03811115612843575f80fd5b61284f858286016126d3565b9150509250929050565b5f805f806080858703121561286c575f80fd5b843593506020850135925060408501356001600160401b03811115612743575f80fd5b5f80604083850312156128a0575f80fd5b6128a9836126b8565b946020939093013593505050565b5f80604083850312156128c8575f80fd5b8235915060208301356001600160401b03811115612843575f80fd5b5f80602083850312156128f5575f80fd5b82356001600160401b038082111561290b575f80fd5b818501915085601f83011261291e575f80fd5b81358181111561292c575f80fd5b8660208260051b8501011115612940575f80fd5b60209290920196919550909350505050565b5f815180845260208085019450602084015f5b8381101561298157815187529582019590820190600101612965565b509495945050505050565b838152826020820152606060408201525f6113f76060830184612952565b634e487b7160e01b5f52604160045260245ffd5b604051608081016001600160401b03811182821017156129e0576129e06129aa565b60405290565b604051601f8201601f191681016001600160401b0381118282101715612a0e57612a0e6129aa565b604052919050565b803560ff811681146126ce575f80fd5b5f60808236031215612a36575f80fd5b612a3e6129be565b823581526020612a4f818501612a16565b81830152612a5f60408501612a16565b604083015260608401356001600160401b0380821115612a7d575f80fd5b9085019036601f830112612a8f575f80fd5b813581811115612aa157612aa16129aa565b612ab3601f8201601f191685016129e6565b91508082523684828501011115612ac8575f80fd5b80848401858401375f9082019093019290925250606082015292915050565b6020808252601f908201527f4556564d3a20636f6d6d69746d656e742063616e6e6f74206265207a65726f00604082015260600190565b634e487b7160e01b5f52601160045260245ffd5b6001600160401b03818116838216019080821115612b5257612b52612b1e565b5092915050565b6020808252601c908201527f4556564d3a206163636f756e7420646f6573206e6f7420657869737400000000604082015260600190565b808201808211156114c3576114c3612b1e565b60609390931b6bffffffffffffffffffffffff1916835260c09190911b6001600160c01b0319166014830152601c820152603c0190565b634e487b7160e01b5f52603260045260245ffd5b5f8235607e19833603018112612c02575f80fd5b9190910192915050565b81835281816020850137505f828201602090810191909152601f909101601f19169091010190565b85815284602082015260a06040820152833560a082015260ff612c5960208601612a16565b1660c082015260ff612c6d60408601612a16565b1660e08201525f6060850135601e19863603018112612c8a575f80fd5b85016020810190356001600160401b03811115612ca5575f80fd5b803603821315612cb3575f80fd5b6080610100850152612cca61012085018284612c0c565b92505050612ce360608301856001600160401b03169052565b82151560808301529695505050505050565b5f60208284031215612d05575f80fd5b5051919050565b5f60018201612d1d57612d1d612b1e565b5060010190565b6001600160401b03828116828216039080821115612b5257612b52612b1e565b604081528251604082015260ff602084015116606082015260ff60408401511660808201525f6060840151608060a084015280518060c0850152806020830160e086015e5f60e08286018101919091526001600160a01b03959095166020850152601f01601f19169092019092019392505050565b60ff851681525f60208510612ddc57634e487b7160e01b5f52602160045260245ffd5b84602083015260806040830152612df66080830185612952565b8281036060840152612e088185612952565b97965050505050505056fea2646970667358221220110da9a6990b905b061d15a0fc21389f3f29a75f85f2833bb5e6d69c8f38c81d64736f6c63430008190033",
  "devdoc": {
    "details": "Step 13: Address-to-Vaddr compatibility layer This contract implements a minimal virtual blockchain with the following features: - Virtual accounts with encrypted balances (euint64) - Virtual transactions with nonce-based replay protection - Virtual block progression with state commitments - Batch transfer processing - Admin functions for testing and maintenanceUsage Flow: 1. Deploy contract with vChainId and evvmID 2. Users register accounts with encrypted initial balances 3. Users perform transfers using encrypted amounts 4. State commitments are calculated off-chain and submitted on-chain 5. Virtual blocks track transaction historyLimitations (MVP): - No signature validation (nonce-only replay protection) - No async nonces support (sequential nonces only) - State commitments must be calculated off-chain - No staking, rewards, or treasury functionality - No cross-chain bridge supportFuture Improvements: - EIP-712 signature validation for transactions - Async nonces for parallel transaction processing - On-chain state commitment calculation (if gas-efficient) - Staking and validator system - Treasury and fee management - Cross-chain bridge integration",
    "errors": {
      "OwnableInvalidOwner(address)": [
        {
          "details": "The owner is not a valid owner account. (eg. `address(0)`)"
        }
      ],
      "OwnableUnauthorizedAccount(address)": [
        {
          "details": "The caller account is not authorized to perform an operation."
        }
      ]
    },
    "events": {
      "AccountRegisteredFromAddress(address,bytes32)": {
        "params": {
          "realAddress": "The Ethereum address that was registered",
          "vaddr": "The generated virtual address"
        }
      },
      "EvvmIDUpdated(uint256,uint256)": {
        "params": {
          "newEvvmID": "The new EVVM ID",
          "oldEvvmID": "The previous EVVM ID"
        }
      },
      "FaucetBalanceAdded(bytes32,uint256)": {
        "params": {
          "amountAdded": "The encrypted amount that was added",
          "vaddr": "The virtual address that received the balance"
        }
      },
      "StateCommitmentUpdated(bytes32)": {
        "params": {
          "newCommitment": "The new state commitment (e.g., Merkle root)"
        }
      },
      "VirtualAccountRegistered(bytes32,uint64)": {
        "params": {
          "initialNonce": "The initial nonce (always 0 for new accounts)",
          "vaddr": "The virtual address of the registered account"
        }
      },
      "VirtualBlockCreated(uint64,bytes32)": {
        "params": {
          "stateCommitment": "The state commitment for this block",
          "vBlockNumber": "The virtual block number"
        }
      },
      "VirtualTransferApplied(bytes32,bytes32,uint256,uint64,uint64,uint256)": {
        "params": {
          "amountEnc": "The encrypted amount transferred",
          "fromVaddr": "The source virtual address",
          "nonce": "The nonce used in this transaction",
          "toVaddr": "The destination virtual address",
          "txId": "The unique transaction ID",
          "vBlockNumber": "The virtual block number when the transaction was applied"
        }
      }
    },
    "kind": "dev",
    "methods": {
      "_applyTransferInternal(bytes32,bytes32,(uint256,uint8,uint8,bytes),uint64,bool)": {
        "details": "This public function allows batch processing with try/catchShould only be called internally or via applyTransfer()",
        "params": {
          "incrementBlock": "If true, increments vBlockNumber (for single transfers). If false, caller handles it (for batches)"
        }
      },
      "accountExists(bytes32)": {
        "params": {
          "vaddr": "Virtual address of the account"
        },
        "returns": {
          "_0": "exists True if the account exists"
        }
      },
      "applyTransfer(bytes32,bytes32,(uint256,uint8,uint8,bytes),uint64)": {
        "details": "Transaction model: (from, to, amount, nonce, chainId)For MVP we don't validate signatures, only check nonce and existenceThis function increments the virtual block number automaticallyReverts if:      - Source or destination account doesn't exist      - Nonce doesn't match the account's current nonceEmits VirtualTransferApplied eventUpdates virtual block number and stores transaction",
        "params": {
          "amount": "Encrypted handle of the amount (InEuint64)",
          "expectedNonce": "Nonce that the caller believes `fromVaddr` has",
          "fromVaddr": "Source virtual account",
          "toVaddr": "Destination virtual account"
        },
        "returns": {
          "txId": "Transaction ID (unique identifier for this transaction)"
        }
      },
      "applyTransferBatch((bytes32,bytes32,(uint256,uint8,uint8,bytes),uint64)[])": {
        "details": "All successful transfers are grouped into one virtual block. Failed transfers are skipped.This function uses try/catch to handle individual transfer failures gracefullyIf all transfers fail, the block number increment is revertedReverts if the transfers array is emptyEach successful transfer emits a VirtualTransferApplied event",
        "params": {
          "transfers": "Array of transfer parameters to process"
        },
        "returns": {
          "failedTxs": "Number of failed transfers",
          "successfulTxs": "Number of successfully processed transfers",
          "txIds": "Array of transaction IDs for successful transfers (0 for failed ones)"
        }
      },
      "constructor": {
        "params": {
          "_evvmID": "EVVM ID for future signature verification",
          "_vChainId": "Unique virtual chain ID"
        }
      },
      "createVirtualBlock(bytes32)": {
        "details": "This function allows explicit block creation with a cryptographic commitmentValidates that the commitment is not empty and that block number increments correctly",
        "params": {
          "newCommitment": "The state commitment for the new block (e.g., Merkle root of all accounts)"
        },
        "returns": {
          "blockNumber": "The newly created block number"
        }
      },
      "faucetAddBalance(bytes32,(uint256,uint8,uint8,bytes))": {
        "details": "This function is useful for testing and developmentIt adds encrypted balance to an existing account without affecting the nonce",
        "params": {
          "amount": "The encrypted amount to add (InEuint64)",
          "vaddr": "The virtual address of the account to add balance to"
        }
      },
      "generateVaddrFromAddress(address,bytes32)": {
        "details": "This is a helper function to create deterministic vaddr from Ethereum addressesFormula: keccak256(abi.encodePacked(realAddress, vChainId, evvmID, salt))",
        "params": {
          "realAddress": "The Ethereum address to convert",
          "salt": "Optional salt for additional entropy (use bytes32(0) for default)"
        },
        "returns": {
          "_0": "vaddr The generated virtual address"
        }
      },
      "getAccount(bytes32)": {
        "details": "Returns balance (encrypted), nonce, and exists flag",
        "params": {
          "vaddr": "Virtual address of the account"
        },
        "returns": {
          "_0": "account The complete VirtualAccount struct"
        }
      },
      "getBlockInfo(uint64)": {
        "details": "Returns block number, state commitment, timestamp, and transaction count",
        "params": {
          "blockNumber": "The virtual block number to query"
        },
        "returns": {
          "blockInfo": "The virtual block struct with all block information"
        }
      },
      "getEncryptedBalance(bytes32)": {
        "details": "Frontend uses cofhesdkClient.decryptHandle(...) to see the plaintext value",
        "params": {
          "vaddr": "Virtual address of the account"
        },
        "returns": {
          "_0": "balance Encrypted balance (euint64)"
        }
      },
      "getNonce(bytes32)": {
        "params": {
          "vaddr": "Virtual address of the account"
        },
        "returns": {
          "_0": "nonce Current nonce (public)"
        }
      },
      "getVaddrFromAddress(address)": {
        "details": "Returns bytes32(0) if the address has not been registered via registerAccountFromAddress()",
        "params": {
          "realAddress": "The Ethereum address to query"
        },
        "returns": {
          "_0": "vaddr The virtual address associated with the Ethereum address, or bytes32(0) if not registered"
        }
      },
      "getVirtualTransaction(uint256)": {
        "details": "Returns a struct with all transaction details including encrypted amount",
        "params": {
          "txId": "The transaction ID to query"
        },
        "returns": {
          "_0": "tx The virtual transaction struct"
        }
      },
      "owner()": {
        "details": "Returns the address of the current owner."
      },
      "registerAccount(bytes32,(uint256,uint8,uint8,bytes))": {
        "details": "vaddr can be keccak256(pubkey), hash of real address, or any unique bytes32The account will be initialized with nonce 0 and the provided encrypted balanceFHE permissions are automatically set for the contract and senderReverts if the account already existsEmits VirtualAccountRegistered event",
        "params": {
          "initialBalance": "Encrypted handle generated with CoFHE (InEuint64)",
          "vaddr": "Virtual identifier of the account (pseudonym, not linked on-chain to real user)"
        }
      },
      "registerAccountFromAddress(address,(uint256,uint8,uint8,bytes))": {
        "details": "Automatically generates vaddr from the Ethereum address using vChainId and evvmIDThis function creates a mapping between the real address and the generated vaddrReverts if the account already exists (either by address or by generated vaddr)Emits AccountRegisteredFromAddress event",
        "params": {
          "initialBalance": "Encrypted handle generated with CoFHE (InEuint64)",
          "realAddress": "The Ethereum address to register"
        }
      },
      "renounceOwnership()": {
        "details": "Leaves the contract without owner. It will not be possible to call `onlyOwner` functions. Can only be called by the current owner. NOTE: Renouncing ownership will leave the contract without an owner, thereby disabling any functionality that is only available to the owner."
      },
      "requestPay(address,address,(uint256,uint8,uint8,bytes),uint64)": {
        "details": "This function bridges the gap between traditional contracts and the virtual blockchainIt looks up the vaddr for each address and calls applyTransfer()Reverts if either address is not registeredReverts with the same errors as applyTransfer() (bad nonce, account missing, etc.)IMPORTANT: The encrypted amount must have permissions for this contract before calling      The frontend should create a sharing permit for EVVMCore before calling this functionTEMPORARY WORKAROUND: This function attempts to handle the conversion with better error messages",
        "params": {
          "amount": "Encrypted handle of the amount (InEuint64)",
          "expectedNonce": "Nonce that the caller believes the sender's account has",
          "from": "The Ethereum address of the sender",
          "to": "The Ethereum address of the recipient"
        },
        "returns": {
          "txId": "Transaction ID (unique identifier for this transaction)"
        }
      },
      "setEvvmID(uint256)": {
        "details": "This function allows the contract owner to update the EVVM IDThe EVVM ID is used for signature verification and vaddr generation",
        "params": {
          "newEvvmID": "The new EVVM ID to set"
        }
      },
      "transferOwnership(address)": {
        "details": "Transfers ownership of the contract to a new account (`newOwner`). Can only be called by the current owner."
      },
      "updateStateCommitment(bytes32)": {
        "details": "Useful for updating the commitment when state changes occurValidates that the commitment is not emptyUpdates the current block's commitment if it existsReverts if newCommitment is zeroEmits StateCommitmentUpdated event",
        "params": {
          "newCommitment": "The new state commitment (must not be bytes32(0))"
        }
      },
      "updateStateCommitmentAfterBatch(bytes32)": {
        "details": "This function should be called after applyTransferBatch() to update the commitmentUseful for maintaining accurate state commitments after batch operations",
        "params": {
          "newCommitment": "The new state commitment calculated off-chain after the batch"
        }
      }
    },
    "stateVariables": {
      "accounts": {
        "details": "vaddr is a pseudonymous identifier (e.g. keccak256(pubkey) or hash of real address)"
      },
      "addressToVaddr": {
        "details": "Enables compatibility layer for traditional contracts"
      },
      "nextTxId": {
        "details": "Starts at 1, increments for each new transaction"
      },
      "stateCommitment": {
        "details": "This can be a Merkle root, hash of all account states, or any state commitment scheme"
      },
      "vaddrToAddress": {
        "details": "Enables lookup of real address from virtual address"
      },
      "virtualBlocks": {
        "details": "Stores metadata about each virtual block"
      },
      "virtualTransactions": {
        "details": "txId is a unique identifier for each transaction"
      }
    },
    "title": "EVVM Core - Virtual Blockchain with FHE",
    "version": 1
  },
  "userdoc": {
    "events": {
      "AccountRegisteredFromAddress(address,bytes32)": {
        "notice": "Emitted when an account is registered from an Ethereum address"
      },
      "EvvmIDUpdated(uint256,uint256)": {
        "notice": "Emitted when the EVVM ID is updated"
      },
      "FaucetBalanceAdded(bytes32,uint256)": {
        "notice": "Emitted when balance is added via faucet"
      },
      "StateCommitmentUpdated(bytes32)": {
        "notice": "Emitted when the virtual state commitment is updated"
      },
      "VirtualAccountRegistered(bytes32,uint64)": {
        "notice": "Emitted when a new virtual account is registered"
      },
      "VirtualBlockCreated(uint64,bytes32)": {
        "notice": "Emitted when a virtual block is created"
      },
      "VirtualTransferApplied(bytes32,bytes32,uint256,uint64,uint64,uint256)": {
        "notice": "Emitted when a virtual transaction is applied"
      }
    },
    "kind": "user",
    "methods": {
      "_applyTransferInternal(bytes32,bytes32,(uint256,uint8,uint8,bytes),uint64,bool)": {
        "notice": "Internal function to apply a transfer (used by batch processing)"
      },
      "accountExists(bytes32)": {
        "notice": "Checks if a virtual account exists"
      },
      "addressToVaddr(address)": {
        "notice": "Map of Ethereum addresses to virtual addresses"
      },
      "applyTransfer(bytes32,bytes32,(uint256,uint8,uint8,bytes),uint64)": {
        "notice": "Applies a transfer within the virtual blockchain"
      },
      "applyTransferBatch((bytes32,bytes32,(uint256,uint8,uint8,bytes),uint64)[])": {
        "notice": "Processes multiple transfers in a single virtual block"
      },
      "constructor": {
        "notice": "EVVM Core contract constructor"
      },
      "createVirtualBlock(bytes32)": {
        "notice": "Creates a new virtual block with a state commitment"
      },
      "evvmID()": {
        "notice": "EVVM ID for future signature verification"
      },
      "faucetAddBalance(bytes32,(uint256,uint8,uint8,bytes))": {
        "notice": "Adds balance to a virtual account via faucet (admin only, for testing)"
      },
      "generateVaddrFromAddress(address,bytes32)": {
        "notice": "Generates a virtual address from an Ethereum address and optional salt"
      },
      "getAccount(bytes32)": {
        "notice": "Returns the complete virtual account information"
      },
      "getBlockInfo(uint64)": {
        "notice": "Retrieves information about a specific virtual block"
      },
      "getEncryptedBalance(bytes32)": {
        "notice": "Returns the encrypted balance of a virtual account"
      },
      "getNonce(bytes32)": {
        "notice": "Returns the current nonce of a virtual account"
      },
      "getVaddrFromAddress(address)": {
        "notice": "Gets the virtual address for a given Ethereum address"
      },
      "getVirtualTransaction(uint256)": {
        "notice": "Retrieves a virtual transaction by its ID"
      },
      "nextTxId()": {
        "notice": "Next transaction ID to be assigned"
      },
      "registerAccount(bytes32,(uint256,uint8,uint8,bytes))": {
        "notice": "Registers a new account in the virtual blockchain with initial encrypted balance"
      },
      "registerAccountFromAddress(address,(uint256,uint8,uint8,bytes))": {
        "notice": "Registers a new account from an Ethereum address (convenience function)"
      },
      "requestPay(address,address,(uint256,uint8,uint8,bytes),uint64)": {
        "notice": "Compatibility function to request payment using Ethereum addresses instead of vaddr"
      },
      "setEvvmID(uint256)": {
        "notice": "Updates the EVVM ID (admin only)"
      },
      "stateCommitment()": {
        "notice": "Cryptographic commitment to the current state of the virtual blockchain"
      },
      "updateStateCommitment(bytes32)": {
        "notice": "Updates the state commitment without creating a new block"
      },
      "updateStateCommitmentAfterBatch(bytes32)": {
        "notice": "Updates the state commitment after a batch of transfers"
      },
      "vBlockNumber()": {
        "notice": "Current height of the \"virtual blockchain\""
      },
      "vChainId()": {
        "notice": "Virtual chain ID (immutable)"
      },
      "vaddrToAddress(bytes32)": {
        "notice": "Map of virtual addresses to Ethereum addresses (reverse mapping)"
      },
      "virtualBlocks(uint64)": {
        "notice": "Map of block numbers to virtual block information"
      },
      "virtualTransactions(uint256)": {
        "notice": "Map of transaction IDs to virtual transactions"
      }
    },
    "notice": "MVP of EVVM Core as \"virtual blockchain\" using FHE for private balances",
    "version": 1
  },
  "storageLayout": {
    "storage": [
      {
        "astId": 17420,
        "contract": "contracts/core/EVVM.core.sol:EVVMCore",
        "label": "_owner",
        "offset": 0,
        "slot": "0",
        "type": "t_address"
      },
      {
        "astId": 22418,
        "contract": "contracts/core/EVVM.core.sol:EVVMCore",
        "label": "vBlockNumber",
        "offset": 20,
        "slot": "0",
        "type": "t_uint64"
      },
      {
        "astId": 22421,
        "contract": "contracts/core/EVVM.core.sol:EVVMCore",
        "label": "evvmID",
        "offset": 0,
        "slot": "1",
        "type": "t_uint256"
      },
      {
        "astId": 22424,
        "contract": "contracts/core/EVVM.core.sol:EVVMCore",
        "label": "stateCommitment",
        "offset": 0,
        "slot": "2",
        "type": "t_bytes32"
      },
      {
        "astId": 22430,
        "contract": "contracts/core/EVVM.core.sol:EVVMCore",
        "label": "accounts",
        "offset": 0,
        "slot": "3",
        "type": "t_mapping(t_bytes32,t_struct(VirtualAccount)22372_storage)"
      },
      {
        "astId": 22436,
        "contract": "contracts/core/EVVM.core.sol:EVVMCore",
        "label": "virtualTransactions",
        "offset": 0,
        "slot": "4",
        "type": "t_mapping(t_uint256,t_struct(VirtualTransaction)22389_storage)"
      },
      {
        "astId": 22439,
        "contract": "contracts/core/EVVM.core.sol:EVVMCore",
        "label": "nextTxId",
        "offset": 0,
        "slot": "5",
        "type": "t_uint256"
      },
      {
        "astId": 22445,
        "contract": "contracts/core/EVVM.core.sol:EVVMCore",
        "label": "virtualBlocks",
        "offset": 0,
        "slot": "6",
        "type": "t_mapping(t_uint64,t_struct(VirtualBlock)22412_storage)"
      },
      {
        "astId": 22450,
        "contract": "contracts/core/EVVM.core.sol:EVVMCore",
        "label": "addressToVaddr",
        "offset": 0,
        "slot": "7",
        "type": "t_mapping(t_address,t_bytes32)"
      },
      {
        "astId": 22455,
        "contract": "contracts/core/EVVM.core.sol:EVVMCore",
        "label": "vaddrToAddress",
        "offset": 0,
        "slot": "8",
        "type": "t_mapping(t_bytes32,t_address)"
      }
    ],
    "types": {
      "t_address": {
        "encoding": "inplace",
        "label": "address",
        "numberOfBytes": "20"
      },
      "t_bool": {
        "encoding": "inplace",
        "label": "bool",
        "numberOfBytes": "1"
      },
      "t_bytes32": {
        "encoding": "inplace",
        "label": "bytes32",
        "numberOfBytes": "32"
      },
      "t_mapping(t_address,t_bytes32)": {
        "encoding": "mapping",
        "key": "t_address",
        "label": "mapping(address => bytes32)",
        "numberOfBytes": "32",
        "value": "t_bytes32"
      },
      "t_mapping(t_bytes32,t_address)": {
        "encoding": "mapping",
        "key": "t_bytes32",
        "label": "mapping(bytes32 => address)",
        "numberOfBytes": "32",
        "value": "t_address"
      },
      "t_mapping(t_bytes32,t_struct(VirtualAccount)22372_storage)": {
        "encoding": "mapping",
        "key": "t_bytes32",
        "label": "mapping(bytes32 => struct EVVMCore.VirtualAccount)",
        "numberOfBytes": "32",
        "value": "t_struct(VirtualAccount)22372_storage"
      },
      "t_mapping(t_uint256,t_struct(VirtualTransaction)22389_storage)": {
        "encoding": "mapping",
        "key": "t_uint256",
        "label": "mapping(uint256 => struct EVVMCore.VirtualTransaction)",
        "numberOfBytes": "32",
        "value": "t_struct(VirtualTransaction)22389_storage"
      },
      "t_mapping(t_uint64,t_struct(VirtualBlock)22412_storage)": {
        "encoding": "mapping",
        "key": "t_uint64",
        "label": "mapping(uint64 => struct EVVMCore.VirtualBlock)",
        "numberOfBytes": "32",
        "value": "t_struct(VirtualBlock)22412_storage"
      },
      "t_struct(VirtualAccount)22372_storage": {
        "encoding": "inplace",
        "label": "struct EVVMCore.VirtualAccount",
        "members": [
          {
            "astId": 22367,
            "contract": "contracts/core/EVVM.core.sol:EVVMCore",
            "label": "balance",
            "offset": 0,
            "slot": "0",
            "type": "t_userDefinedValueType(euint64)26"
          },
          {
            "astId": 22369,
            "contract": "contracts/core/EVVM.core.sol:EVVMCore",
            "label": "nonce",
            "offset": 0,
            "slot": "1",
            "type": "t_uint64"
          },
          {
            "astId": 22371,
            "contract": "contracts/core/EVVM.core.sol:EVVMCore",
            "label": "exists",
            "offset": 8,
            "slot": "1",
            "type": "t_bool"
          }
        ],
        "numberOfBytes": "64"
      },
      "t_struct(VirtualBlock)22412_storage": {
        "encoding": "inplace",
        "label": "struct EVVMCore.VirtualBlock",
        "members": [
          {
            "astId": 22403,
            "contract": "contracts/core/EVVM.core.sol:EVVMCore",
            "label": "blockNumber",
            "offset": 0,
            "slot": "0",
            "type": "t_uint64"
          },
          {
            "astId": 22405,
            "contract": "contracts/core/EVVM.core.sol:EVVMCore",
            "label": "stateCommitment",
            "offset": 0,
            "slot": "1",
            "type": "t_bytes32"
          },
          {
            "astId": 22407,
            "contract": "contracts/core/EVVM.core.sol:EVVMCore",
            "label": "timestamp",
            "offset": 0,
            "slot": "2",
            "type": "t_uint256"
          },
          {
            "astId": 22409,
            "contract": "contracts/core/EVVM.core.sol:EVVMCore",
            "label": "transactionCount",
            "offset": 0,
            "slot": "3",
            "type": "t_uint256"
          },
          {
            "astId": 22411,
            "contract": "contracts/core/EVVM.core.sol:EVVMCore",
            "label": "exists",
            "offset": 0,
            "slot": "4",
            "type": "t_bool"
          }
        ],
        "numberOfBytes": "160"
      },
      "t_struct(VirtualTransaction)22389_storage": {
        "encoding": "inplace",
        "label": "struct EVVMCore.VirtualTransaction",
        "members": [
          {
            "astId": 22375,
            "contract": "contracts/core/EVVM.core.sol:EVVMCore",
            "label": "fromVaddr",
            "offset": 0,
            "slot": "0",
            "type": "t_bytes32"
          },
          {
            "astId": 22377,
            "contract": "contracts/core/EVVM.core.sol:EVVMCore",
            "label": "toVaddr",
            "offset": 0,
            "slot": "1",
            "type": "t_bytes32"
          },
          {
            "astId": 22380,
            "contract": "contracts/core/EVVM.core.sol:EVVMCore",
            "label": "amountEnc",
            "offset": 0,
            "slot": "2",
            "type": "t_userDefinedValueType(euint64)26"
          },
          {
            "astId": 22382,
            "contract": "contracts/core/EVVM.core.sol:EVVMCore",
            "label": "nonce",
            "offset": 0,
            "slot": "3",
            "type": "t_uint64"
          },
          {
            "astId": 22384,
            "contract": "contracts/core/EVVM.core.sol:EVVMCore",
            "label": "vBlockNumber",
            "offset": 8,
            "slot": "3",
            "type": "t_uint64"
          },
          {
            "astId": 22386,
            "contract": "contracts/core/EVVM.core.sol:EVVMCore",
            "label": "timestamp",
            "offset": 0,
            "slot": "4",
            "type": "t_uint256"
          },
          {
            "astId": 22388,
            "contract": "contracts/core/EVVM.core.sol:EVVMCore",
            "label": "exists",
            "offset": 0,
            "slot": "5",
            "type": "t_bool"
          }
        ],
        "numberOfBytes": "192"
      },
      "t_uint256": {
        "encoding": "inplace",
        "label": "uint256",
        "numberOfBytes": "32"
      },
      "t_uint64": {
        "encoding": "inplace",
        "label": "uint64",
        "numberOfBytes": "8"
      },
      "t_userDefinedValueType(euint64)26": {
        "encoding": "inplace",
        "label": "euint64",
        "numberOfBytes": "32"
      }
    }
  }
}